{
  "transactions": [
    {
      "hash": "0x86354c8cb56521e593f291cdb95620acc8c291ecc2c967bb63a5efc90a5ecd24",
      "transactionType": "CALL",
      "contractName": "TransparentUpgradeableProxy",
      "contractAddress": "0xCC737a94FecaeC165AbCf12dED095BB13F037685",
      "function": "dispatch(uint32,bytes32,bytes):(bytes32)",
      "arguments": [
        "5",
        "0x0000000000000000000000002376310fc770fe325f8407ebd44e49c6bbcbf148",
        "0x0000000000000000000000000000000000000000000000000000000000000014"
      ],
      "transaction": {
        "type": "0x02",
        "from": "0x548575786eebe8b31e0bd244b93cd501c6e767a8",
        "to": "0xcc737a94fecaec165abcf12ded095bb13f037685",
        "gas": "0x105e7",
        "value": "0x0",
        "data": "0xfa31de0100000000000000000000000000000000000000000000000000000000000000050000000000000000000000002376310fc770fe325f8407ebd44e49c6bbcbf148000000000000000000000000000000000000000000000000000000000000006000000000000000000000000000000000000000000000000000000000000000200000000000000000000000000000000000000000000000000000000000000014",
        "nonce": "0x5",
        "accessList": []
      },
      "additionalContracts": [],
      "isFixedGasLimit": false
    }
  ],
  "receipts": [
    {
      "transactionHash": "0x86354c8cb56521e593f291cdb95620acc8c291ecc2c967bb63a5efc90a5ecd24",
      "transactionIndex": "0x12",
      "blockHash": "0xd5ba1b74f1827f5b7cf5c587ad4e3a06bc8ddbcbd6af17fb5b4663601c25ccb4",
      "blockNumber": "0x2580f6f",
      "from": "0x548575786EEbE8B31e0Bd244B93Cd501c6e767a8",
      "to": "0xCC737a94FecaeC165AbCf12dED095BB13F037685",
      "cumulativeGasUsed": "0x30f29a",
      "gasUsed": "0xbd9e",
      "contractAddress": null,
      "logs": [
        {
          "address": "0xCC737a94FecaeC165AbCf12dED095BB13F037685",
          "topics": [
            "0x769f711d20c679153d382254f59892613b58a97cc876b249134ac25c80f9c814",
            "0x000000000000000000000000548575786eebe8b31e0bd244b93cd501c6e767a8",
            "0x0000000000000000000000000000000000000000000000000000000000000005",
            "0x0000000000000000000000002376310fc770fe325f8407ebd44e49c6bbcbf148"
          ],
          "data": "0x0000000000000000000000000000000000000000000000000000000000000020000000000000000000000000000000000000000000000000000000000000006d000000a2ae00013881000000000000000000000000548575786eebe8b31e0bd244b93cd501c6e767a8000000050000000000000000000000002376310fc770fe325f8407ebd44e49c6bbcbf148000000000000000000000000000000000000000000000000000000000000001400000000000000000000000000000000000000",
          "blockHash": "0xd5ba1b74f1827f5b7cf5c587ad4e3a06bc8ddbcbd6af17fb5b4663601c25ccb4",
          "blockNumber": "0x2580f6f",
          "transactionHash": "0x86354c8cb56521e593f291cdb95620acc8c291ecc2c967bb63a5efc90a5ecd24",
          "transactionIndex": "0x12",
          "logIndex": "0x73",
          "removed": false
        },
        {
          "address": "0xCC737a94FecaeC165AbCf12dED095BB13F037685",
          "topics": [
            "0x788dbc1b7152732178210e7f4d9d010ef016f9eafbe66786bd7169f56e0c353a",
            "0x4db98e65e9ee8a63b9f24cc2814ccb978d26c9ec4154c6fd0fd9203cf7e38909"
          ],
          "data": "0x",
          "blockHash": "0xd5ba1b74f1827f5b7cf5c587ad4e3a06bc8ddbcbd6af17fb5b4663601c25ccb4",
          "blockNumber": "0x2580f6f",
          "transactionHash": "0x86354c8cb56521e593f291cdb95620acc8c291ecc2c967bb63a5efc90a5ecd24",
          "transactionIndex": "0x12",
          "logIndex": "0x74",
          "removed": false
        },
        {
          "address": "0x0000000000000000000000000000000000001010",
          "topics": [
            "0x4dfe1bbbcf077ddc3e01291eea2d5c70c2b422b415d95645b9adcfd678cb1d63",
            "0x0000000000000000000000000000000000000000000000000000000000001010",
            "0x000000000000000000000000548575786eebe8b31e0bd244b93cd501c6e767a8",
            "0x000000000000000000000000f903ba9e006193c1527bfbe65fe2123704ea3f99"
          ],
          "data": "0x0000000000000000000000000000000000000000000000000000584c21497e200000000000000000000000000000000000000000000000000ddc0e471f4cc800000000000000000000000000000000000000000000001088e52604820f25ddd10000000000000000000000000000000000000000000000000ddbb5fafe0349e0000000000000000000000000000000000000000000001088e5265cce306f5bf1",
          "blockHash": "0xd5ba1b74f1827f5b7cf5c587ad4e3a06bc8ddbcbd6af17fb5b4663601c25ccb4",
          "blockNumber": "0x2580f6f",
          "transactionHash": "0x86354c8cb56521e593f291cdb95620acc8c291ecc2c967bb63a5efc90a5ecd24",
          "transactionIndex": "0x12",
          "logIndex": "0x75",
          "removed": false
        }
      ],
      "status": "0x1",
      "logsBloom": "0x00000020000000800000000000000000000000000000000000200010000000000000000000000020080000000000000000008000000000000000000000000800000010000000000000000000000000800000080000000000000100000000000000000000000000000000020000000004000000000002000080000000020000000000000008000000000000000000001000800800000000000000000000000000200000000000000000000000000000000000000000000000000000000000004000001000000000000001000000000000000000020000000000100000001000100000400000000000000000000000000000000000000000000000020000140000",
      "type": "0x2",
      "effectiveGasPrice": "0x77359400"
    }
  ],
  "libraries": [],
  "pending": [],
  "returns": {},
  "timestamp": 1692827120,
  "chain": 80001,
  "multi": false,
  "commit": "ad33cfd"
}